:1000000000000120D50D0000450E0000470E000045
:10001000490E00004B0E00004D0E000000000000D5
:100020000000000000000000000000004F0E000073
:10003000510E000000000000530E0000550E00009D
:10004000570E0000570E0000570E0000570E00001C
:10005000570E0000570E0000570E0000570E00000C
:10006000570E0000570E0000570E0000570E0000FC
:10007000570E0000570E0000570E0000570E0000EC
:10008000570E0000570E0000570E0000570E0000DC
:10009000570E0000570E0000570E0000570E0000CC
:1000A000570E0000570E0000570E0000570E0000BC
:1000B000570E0000570E0000000000000000000076
:1000C000570E0000570E0000570E0000570E00009C
:1000D000570E0000570E0000570E000000000000F1
:1000E0000000000000000000000000000000000010
:1000F0000000000000000000000000000000000000
:1001000000000000000000000000000000000000EF
:1001100000000000000000000000000000000000DF
:1001200000000000000000000000000000000000CF
:1001300000000000000000000000000000000000BF
:1001400000000000000000000000000000000000AF
:10015000000000000000000000000000000000009F
:10016000000000000000000000000000000000008F
:10017000000000000000000000000000000000007F
:10018000000000000000000000000000000000006F
:10019000000000000000000000000000000000005F
:1001A000000000000000000000000000000000004F
:1001B000000000000000000000000000000000003F
:1001C000000000000000000000000000000000002F
:1001D000000000000000000000000000000000001F
:1001E000000000000000000000000000000000000F
:1001F00000000000000000000000000000000000FF
:100200005468652061766572616765206772616414
:100210006520696E2054544B2564207761732069F2
:100220006E20256420776173203A2025630A0D0033
:10023000303132333435363738394142434445461C
:1002400000000000303132333435363738396162DE
:100250006364656600000000286E756C6C29000000
:10026000202020202020202020202020202020208E
:10027000303030303030303030303030303030307E
:080280009000000001000000E5
:100288000348044B834202D0034B03B1184770471D
:100298005005002050050020000000000548064BCE
:1002A8001B1AD90F01EBA301491002D0034B03B16C
:1002B8001847704750050020500500200000000036
:1002C80010B5064C237843B9FFF7DAFF044B13B196
:1002D8000448AFF300800123237010BD50050020AF
:1002E80000000000AC37000008B5044B1BB10449FE
:1002F8000448AFF30080BDE80840CFE700000000E5
:1003080054050020AC370000A3F5803A704700BFC1
:10031800154B002B08BF114B9D46FFF7F5FF002139
:100328008B460F461148124A121A00F091FD0C4BE9
:10033800002B00D098470B4B002B00D0984700208B
:10034800002104000D000B4801F0ACFE01F05EFD39
:100358002000290000F030F801F096FE00000800A7
:1003680000000000000000000000012050050020EF
:1003780078080020DD20000080B586B000AFF86066
:10038800B9607A60BB687B6100233B610AE07B69E6
:100398001B78184600F0BCF87B6901337B613B6928
:1003A80001333B613B697A689A42F0D87B6818460A
:1003B8001837BD4680BD000080B584B000AF00F09E
:1003C80075F84FF0A0430C22C3F834274FF0A04330
:1003D8000C22C3F838271123FB600AE04FF0A04233
:1003E800FB6803F5E073012142F82310FB68013331
:1003F800FB60FB68142BF1DD0123FB7200237B609B
:100408004FF0A043D3F810353B603B685B0B03F01B
:100418000103002B17D1412000F07AF8FB7A002B5A
:1004280008D04FF0A0434FF4F012C3F80C25002376
:10043800FB7225E04FF0A0434FF4F012C3F80825F3
:100448000123FB721CE03B689B0B03F00103002BAC
:1004580016D1422000F05CF8FB7A002B08D04FF050
:10046800A0434FF4F012C3F80C250023FB7207E0F9
:100478004FF0A0434FF4F012C3F808250123FB7294
:10048800422340F2E67241F28B01064800F032FD49
:10049800054B7B6000BF7B68013B7B607B68002B62
:1004A800F9D1ADE70002000040420F0080B400AF70
:1004B8004FF0A0430022C3F818274FF0A0430122B1
:1004C800C3F82027104B0622C3F80C250E4B082230
:1004D800C3F814250C4B0D4AC3F824250A4B4FF0DA
:1004E800FF32C3F80825084B4FF0FF32C3F8102538
:1004F800054B0422C3F80025034B01221A6000BFF4
:10050800BD4680BC704700BF002000400050270057
:1005180080B483B000AF0346FB710C4B01229A6094
:100528000A4AFB79C2F81C3500BF084BD3F81C31C6
:10053800002BFAD0054B0022C3F81C21034B0122E3
:10054800DA6000BF0C37BD4680BC70470020004011
:1005580080B483B000AF1E4B1B68B3F1FF3F0AD1D4
:100568001C4B1B68DBB27B601B4B1B681B0903F031
:100578000F033B6005E0164B1B687B60174B1B683D
:100588003B607B68062B1DD13B68033B042B17D8C7
:1005980001A252F823F000BFB5050000B90500001C
:1005A800BD050000C1050000C505000001230AE0E3
:1005B800012308E0012306E0012304E0012302E00F
:1005C800012300E0002318460C37BD4680BC704765
:1005D80030010010E00F00F0E80F00F034010010C7
:1005E80080B483B000AF184B1B68DBB27B60174B3D
:1005F8001B681B0903F00F033B607B68062B1DD1AA
:100608003B68033B042B17D801A252F823F000BF24
:100618002D060000310600003506000039060000EE
:100628003D06000001230AE0002308E0002306E05D
:10063800002304E0002302E0002300E00023184622
:100648000C37BD4680BC7047E00F00F0E80F00F0A3
:1006580080B483B000AF1E4B1B68B3F1FF3F0AD1D3
:100668001C4B1B68DBB27B601B4B1B681B0903F030
:100678000F033B6005E0164B1B687B60174B1B683C
:100688003B607B68062B1DD13B68033B042B17D8C6
:1006980001A252F823F000BFB5060000B906000019
:1006A800BD060000C1060000C506000001230AE0DF
:1006B800012308E0012306E0012304E0012302E00E
:1006C800012300E0002318460C37BD4680BC704764
:1006D80030010010E00F00F0E80F00F034010010C6
:1006E80080B483B000AF184B1B68DBB27B60174B3C
:1006F8001B681B0903F00F033B607B68062B1DD1A9
:100708003B68033B042B17D801A252F823F000BF23
:100718002D070000310700003507000039070000E9
:100728003D07000001230AE0002308E0002306E05B
:10073800002304E0002302E0002300E00023184621
:100748000C37BD4680BC7047E00F00F0E80F00F0A2
:1007580080B483B000AF1E4B1B68B3F1FF3F0AD1D2
:100768001C4B1B68DBB27B601B4B1B681B0903F02F
:100778000F033B6005E0164B1B687B60174B1B683B
:100788003B607B68062B1DD13B68033B042B17D8C5
:1007980001A252F823F000BFB5070000B907000016
:1007A800BD070000C1070000C507000001230AE0DB
:1007B800012308E0012306E0012304E0012302E00D
:1007C800012300E0002318460C37BD4680BC704763
:1007D80030010010E00F00F0E80F00F034010010C5
:1007E80080B483B000AF184B1B68DBB27B60174B3B
:1007F8001B681B0903F00F033B607B68062B1DD1A8
:100808003B68033B042B17D801A252F823F000BF22
:100818002D080000310800003508000039080000E4
:100828003D08000001230AE0002308E0002306E059
:10083800002304E0002302E0002300E00023184620
:100848000C37BD4680BC7047E00F00F0E80F00F0A1
:1008580080B483B000AF184B1B68DBB27B60174BCA
:100868001B681B0903F00F033B607B68062B1DD137
:100878003B68033B042B17D801A252F823F000BFB2
:100888009D080000A1080000A5080000A9080000B4
:10089800AD08000001230AE0002308E0002306E079
:1008A800002304E0002302E0002300E000231846B0
:1008B8000C37BD4680BC7047E00F00F0E80F00F031
:1008C80080B483B000AF1E4B1B68B3F1FF3F0AD161
:1008D8001C4B1B68DBB27B601B4B1B681B0903F0BE
:1008E8000F033B6005E0164B1B687B60174B1B68CA
:1008F8003B607B68062B1DD13B68033B042B17D854
:1009080001A252F823F000BF2509000029090000C0
:100918002D090000310900003509000000230AE014
:10092800002308E0012306E0012304E0012302E09C
:10093800012300E0002318460C37BD4680BC7047F1
:1009480030010010E00F00F0E80F00F03401001053
:1009580080B483B000AF1E4B1B68B3F1FF3F0AD1D0
:100968001C4B1B68DBB27B601B4B1B681B0903F02D
:100978000F033B6005E0164B1B687B60174B1B6839
:100988003B607B68062B1DD13B68033B042B17D8C3
:1009980001A252F823F000BFB5090000B909000010
:1009A800BD090000C1090000C509000001230AE0D3
:1009B800012308E0012306E0012304E0012302E00B
:1009C800012300E0002318460C37BD4680BC704761
:1009D80030010010E00F00F0E80F00F034010010C3
:1009E80080B483B000AF1E4B1B68B3F1FF3F0AD140
:1009F8001C4B1B68DBB27B601B4B1B681B0903F09D
:100A08000F033B6005E0164B1B687B60174B1B68A8
:100A18003B607B68062B1DD13B68033B042B17D832
:100A280001A252F823F000BF450A0000490A00005D
:100A38004D0A0000510A0000550A000001230AE08F
:100A4800012308E0012306E0012304E0012302E07A
:100A5800012300E0002318460C37BD4680BC7047D0
:100A680030010010E00F00F0E80F00F03401001032
:100A780080B483B000AF164B1B687B60154B1B68B6
:100A88003B607B68062B1DD13B68033B042B17D8C2
:100A980001A252F823F000BFB50A0000B90A00000D
:100AA800BD0A0000C10A0000C50A000000230AE0D0
:100AB800002308E0002306E0012304E0012302E00C
:100AC800012300E0002318460C37BD4680BC704760
:100AD800300100103401001080B483B000AF164B11
:100AE8001B687B60154B1B683B607B68062B1DD120
:100AF8003B68033B042B17D801A252F823F000BF30
:100B08001D0B0000210B0000250B0000290B000025
:100B18002D0B000000230AE0002308E0002306E074
:100B2800002304E0012302E0012300E0002318462B
:100B38000C37BD4680BC70473001001034010010EE
:100B480080B500AFFFF7C8FF0346002B07D04FF072
:100B580010234FF08042D3F80832C2F8583500BF4E
:100B680080BD000080B400AF034B044A1A6000BF88
:100B7800BD4680BC704700BF000000200090D00335
:100B880080B500AFFFF7E4FC0346002B06D07F4B8F
:100B98001B681B0A7E4A03F01F031360FFF720FD42
:100BA8000346002B02D07B4B7B4A1A60FFF750FDAF
:100BB8000346002B06D0794B1B685B0B784A03F081
:100BC80007031360FFF78CFD0346002B05D0754B18
:100BD800DB68744A23F08073D360FFF7B9FD0346DE
:100BE800002B0ED04FF080430022C3F80C214FF0A9
:100BF80080430022C3F810214FF080430022C3F83D
:100C08003825FFF7EDFD0346002B02D0664B032283
:100C18001A60FFF71DFE0346002B0BD0634B05221D
:100C28001A60634B01221A60624B00221A60624B01
:100C38003F221A60FFF744FE0346002B76D04FF0A0
:100C480080535E4AD3F80434C2F820354FF08053FD
:100C58005A4AD3F80834C2F824354FF08053574A1B
:100C6800D3F80C34C2F828354FF08053534AD3F8E0
:100C78001034C2F82C354FF08053504AD3F814344E
:100C8800C2F830354FF080534C4AD3F81834C2F8C4
:100C980034354FF08053494AD3F81C34C2F84035F4
:100CA8004FF08053454AD3F82034C2F844354FF00A
:100CB8008053424AD3F82434C2F848354FF0805361
:100CC8003E4AD3F82834C2F84C354FF080533B4A9B
:100CD800D3F82C34C2F850354FF08053374AD3F844
:100CE8003034C2F854354FF08053344AD3F8343492
:100CF800C2F860354FF08053304AD3F83834C2F820
:100D080064354FF080532D4AD3F83C34C2F8683527
:100D18004FF08053294AD3F84034C2F86C354FF06D
:100D28008053264AD3F84434C2F87035FFF710FED2
:100D38000346002B05D0224B1B68224A03F04F03C1
:100D48001360FFF74DFE0346002B0DD04FF0804394
:100D5800D3F8003403F00103002B05D04FF0804393
:100D68006FF00102C3F80024FFF782FE0346002B50
:100D780005D0154B1B68144A43F480631360FFF7D2
:100D8800DFFEFFF7EFFE00BF80BD00BF24030010A9
:100D98004035014074C007400DF0ADBA4402001060
:100DA8003C050040F0ED00E0A00500401056004072
:100DB80088560040185600401456004000C00040B5
:100DC80058020010E40E00403C1700400F49104A3A
:100DD800104B00F010F81049104A114B00F00BF8B6
:100DE8001049114A114B00F006F81149114A124BEB
:100DF80000F001F806E0521A03DD043A98588850CA
:100E0800FBDC7047FFF7BCFEFFF782FA000000200A
:100E180050050020A838000050050020500500208B
:100E2800F83D00005005002050050020F83D000066
:100E38005005002050050020F83D0000FEE7FEE7C1
:100E4800FEE7FEE7FEE7FEE7FEE7FEE7FEE7FEE772
:100E5800830730B547D0541E002A3ED0CAB2034695
:100E680001E0013C39D303F8012B9D07F9D1032C8C
:100E78002CD9CDB205EB05250F2C05EB054535D949
:100E8800A4F1100222F00F0C03F1100EE6444FEA11
:100E9800121C1A46C2E90055C2E9025510327245C1
:100EA800F8D10CF1010214F00C0F03EB021204F05C
:100EB8000F0C13D0ACF1040323F0030304331344E1
:100EC80042F8045B9342FBD10CF003042CB1C9B285
:100ED8001C4403F8011BA342FBD130BD64461346F2
:100EE800002CF4D1F9E703461446C0E71A46A44695
:100EF800E0E700BF0FB400B5074983B004AB08684A
:100F080053F8042B8168019300F018F803B05DF8DA
:100F180004EB04B0704700BF080000200EB400B511
:100F280082B003AB816853F8042B019300F006F8F4
:100F380002B05DF804EB03B0704700BF2DE9F04F35
:100F4800ADB0CDE907301C460291934618B1436B0A
:100F5800002B00F003850299B1F90C204B6E950423
:100F680005D442F4005223F400538A814B66980456
:100F780000F12485029BB3F90C20110740F1D380BE
:100F88001B69002B00F0CF8002F01A020A2A00F039
:100F9800D9800023CDE910330DF17009CDF83C90CC
:100FA8000993CA4605939BF80030002B00F0F480A3
:100FB8005C4604E014F8013F002B00F0D280252B9A
:100FC800F8D1B4EB0B0540F0CF802378002B00F06C
:100FD800E3804FF000038DF837304FF0FF320023E5
:100FE800CDE90323617804F1010B98460BF1010B5D
:100FF800A1F12003582B00F2DC80DFE813F0B201E6
:10100800DA00DA00AD01DA00DA00DA00DA00DA0034
:10101800DA007601A701DA0081018601DA00A2016F
:1010280059005900590059005900590059005900F0
:101038005900DA00DA00DA00DA00DA00DA00DA0059
:10104800DA00DA00DA006800DA00DA00DA00DA003A
:10105800DA00DA00DA00DA00DA00DA001902DA0077
:10106800DA00DA00DA00DA00EA01DA00DA001D0450
:10107800DA00DA00DA00DA00DA00DA00DA00DA0098
:10108800DA00DA00DD016A00DA00DA00DA00D801F5
:101098006A00DA00DA00CB01DA00BD011B047F0226
:1010A8007A02DA005902DA001904DA00DA00420496
:1010B800A1F1300300221BF8011B02EB820203EBB3
:1010C8004202A1F13003092BF5D9049290E748F0C8
:1010D800100818F0200F00F0D780079B073323F083
:1010E80007031A46596852F8083B07920A4600292E
:1010F800C0F2DE8003999DF837500029C0F2E380E2
:1011080053EA020128F0800840F0DD80039B002BA1
:1011180040F0598401934C46002D00F0BE81019A9D
:1011280001320192B9E1029D0898294600F0A6FC17
:10113800002840F04384B5F90C2002F01A020A2A6C
:101148007FF427AF029BB3F90E30002BFFF621AFD7
:101158000299089823465A462DB0BDE8F04F00F092
:1011680057BCB4EB0B0517D0119B2B441193109B64
:101178000133072BCAE900B5109305DC0AF1080A08
:10118800059B2B44059320E7029908980FAA01F0C4
:101198003FF828B9CA46F3E7119B002B40F00084BA
:1011A800029B9B895B0600F1098405982DB0BDE878
:1011B800F08F0029F0D000238DF8373001238DF807
:1011C8004810019312AC00220392069218F084078B
:1011D800DDE9102105D10498019D451B002D00F380
:1011E8004F829DF8370080B101320DF1370001318F
:1011F800CAF80000072A4FF00100CDE91021CAF80B
:10120800040000F377820AF1080A069878B10132DF
:101218000EA80231CAF80000072A4FF00200CDE9F3
:101228001021CAF8040000F373820AF1080A802F1B
:1012380000F09B810398C51A002D00F3D581013277
:101248001944072ACDE91021CAF80040CAF8043029
:1012580000F302820AF1080A18F0040F05D0049B73
:10126800019A9C1A002C00F36182DDE9042301989D
:101278008242ACBF9B181B180593002940F0F781E8
:1012880000231093CA468EE6079A18F0100F52F8FA
:10129800043B079207D118F0400F04D043F3C03243
:1012A80011461BB223E7DA1711460029BFF622AF11
:1012B80003995B4262EB42022D2500298DF83750D5
:1012C80001DB28F080080A2B72F1000180F0F3821C
:1012D8003033DBB28DF86F30039B012BB8BF01238D
:1012E80001930DF16F04012316E7079B53F8042BB4
:1012F8000492002A80F28882049A07935242049248
:101308009BF8001048F0040870E6584610F8011BD6
:101318002A2900F05A83A1F13003092B98BF002233
:1013280000F2478310F8011B02EB820203EB420232
:10133800A1F13003092BF5D942EAE27303938346FE
:1013480056E69BF8001048F080084FE62B239BF8E0
:1013580000108DF8373049E69BF8001048F0010876
:1013680044E69DF837309BF80010002B7FF43EAE22
:1013780020238DF8373039E618F0200F00F04D8221
:10138800079B059A1B681A60D2175A60079B04339B
:10139800079308E69BF800106C2903BF9BF801101F
:1013A80048F020080BF1010B48F010081EE69BF8E6
:1013B800001048F0400819E6079B00228DF83720F6
:1013C80053F8042B079301238DF84820019312AC9E
:1013D800F9E648F0100111F0200200F0DE81079BC9
:1013E800073323F0070318465A6850F8083B07905C
:1013F80003980025A8428DF83750C0F2A78201252E
:1014080053EA020021F0800840F0948003980028F5
:1014180040F09E82002D40F0F38111F0010300F0AE
:10142800F88130228DF86F2001930DF16F0434E0BC
:1014380048F0100111F0200200F0BE81079B07332D
:1014480023F0070318465A6850F8083B079003989A
:101458000025A8428DF83750D2DA88464C4603F06A
:101468000701DB0843EA4273D208303153EA020528
:10147800204604F8011DF2D118F0010F6DD0302973
:101488006BD0039A0238302304F8013CA9EB00031F
:101498009A42B8BF1A460446019218F00202069210
:1014A8003FF494AE019A02320192022206928DE62E
:1014B800079D039B55F8044B00218DF83710002C2D
:1014C80000F05E82002BC0F2DF811A46204600F051
:1014D80073FF002800F06B82031B9DF8372023EA76
:1014E800E3710191002A00F05282002207950392CD
:1014F80015E69BF8001048F0200877E5079A52F89F
:10150800043B079247F63002ADF83820B24A0992F8
:1015180048F00208002200218DF8371003990029AD
:101528000DDB414653EA02004FF0020521F0800826
:101538003FF46CAF012D00F05482022D8ED1099832
:101548004C4603F00F011B09415C04F8011D43EAF6
:101558000273120953EA0201F3D1039AA9EB0403B7
:101568009A42B8BF1A46019297E70498019D451B15
:10157800002D7FF75FAE102D984E23DD0694504660
:10158800089C10279A4604E0103D102D00F1080031
:1015980015DD01321031072AC0E90067CDE91021B5
:1015A800F2DD02990FAA204600F032FE00287FF4EF
:1015B800F7AD103D102DDDE910214846E9DC069C09
:1015C8005346824601322944072ACDE91021CAF838
:1015D8000060CAF8045000F3C5810398C51A002DAD
:1015E8000AF1080A7FF72BAE102D7C4E26DD0394F6
:1015F8005046089CB24610271E4604E0103D102DA8
:1016080000F1080016DD0132744B1031072AC0E9D9
:101618000037CDE91021F1DD02990FAA204600F02C
:10162800F7FD00287FF4BCAD103D102DDDE9102139
:101638004846E8DC039C3346564682460132294434
:10164800072ACDE91021CAF80060CAF8045000F34F
:10165800C9800AF1080AF2E5029908980FAA00F071
:10166800D7FD00287FF49CAD1199CA46F4E502998C
:1016780008980FAA00F0CCFD00283FF401AE8FE5D2
:10168800102D574E28DDCDE90A7450463746089C80
:10169800029E9A4604E0103D102D00F1080016DD68
:1016A800013210311023072ACDE910210760436069
:1016B800F1DD0FAA3146204600F0AAFD00287FF48C
:1016C8006FAD103D102DDDE910214846E8DC3E469F
:1016D8000B9C0A9F5346824601322944072ACDE9CA
:1016E8001021CAF80060CAF8045000F321810AF1F9
:1016F800080A76E5029908980A930FAA00F088FD6F
:1017080000287FF44DADDDE910210A9BCA467CE52F
:101718000299089806930FAA00F07AFD00287FF432
:101728003FADDDE91021069BCA4680E5102C109BD1
:101738002B4E1FDD089FDDF80880102504E0103CC3
:10174800102C0AF1080A15DD01331031072BCAE9FC
:101758000065CDE91031F2DD0FAA4146384600F0A8
:1017680057FD00287FF41CAD103C102CDDE910312A
:10177800CA46E9DC01332144072BCAE90064CDE9F4
:1017880010317FF772AD029908980FAA00F040FD5A
:1017980000287FF405AD119967E5079850F8043BD8
:1017A800079011F010007FF423AE11F040023FF4CF
:1017B8001FAE9BB202461BE6079850F8043B079001
:1017C80011F010007FF443AE11F040023FF43FAE39
:1017D8009BB202463BE600BF4402000070020000D4
:1017E800600200000299089803930FAA00F010FD08
:1017F80000287FF4D5ACDDE91021039BCA461EE51D
:10180800039B01934C4648E69BF800100793FFF7AB
:10181800EDBB039A01924C463FE618F0100F38D101
:1018280018F0400F35D0079B059A1B681A80ADE564
:101838004146D0E54146FDE56B4B099318F020027F
:101848002CD0079B073323F0070318465A6850F833
:10185800083B079018F0010F3FF45DAE53EA020011
:101868003FF459AE8DF8391030218DF83810002129
:101878008DF837100399002980F28D8048F002080E
:101888005DE65A4B0993D9E7204600F055FC03461C
:1018980023E6079B059A1B681A6077E5079850F8B6
:1018A800043B079018F01000D4D118F040021CBF78
:1018B8009BB20246CEE74E4ECDF804A04C464FF000
:1018C800050E991841F10001A6FB010727F0030056
:1018D80000EB9700091A581A9A46944662F10003D9
:1018E8004FF0CC3202FB00F206FB0322A0FB0630CD
:1018F80003F001070244A7FB0E074018BAF10A0FCC
:101908004FEA530300F130007CF1000C43EAC27344
:1019180004F8010D4FEA5202D3D2039ADDF804A06D
:10192800A9EB04039A42B8BF1A460192FFF7F4BB29
:10193800029908980A930FAA00F06AFC00287FF41D
:101948002FACDDE910210A9BCA464AE48846BAE46E
:10195800012D7FF4F2AD00253023BBE400F06CFBD1
:10196800FFF7F9BA0299089806930FAA00F050FCFD
:1019780000287FF415ACDDE91021069BCA4659E41E
:10198800062B28BF06231B4C079501931BE4CDE9C2
:10199800062503921AE428F0800141F00208CEE5FA
:1019A800029908980FAA00F033FCFFF7F9BB039BD4
:1019B80093E5002383460393FFF71ABB4FF0FF33E9
:1019C8000593FFF7F2BB302384E4079B9BF80110D3
:1019D80053F8042B079342EAE27283460392FFF717
:1019E80005BB00256FE400BF300200004402000080
:1019F800CDCCCCCC5802000010B4044C844613461D
:101A0800206810BC0A466146FFF798BA0800002013
:101A180070B50C468989ADF58D6D21F00201ADF8E0
:101A28000C101AA9009104914FF48061029105915C
:101A3800616E1991E189ADF80E10E1690791616A4B
:101A480009910021069169460646FFF777FA051EB7
:101A580007DB6946304600F093FD002818BF4FF0B9
:101A6800FF35BDF80C305B0603D5A38943F040036E
:101A7800A38128460DF58D6D70BD00BF38B52F4B7D
:101A88001B6805460C4613B15A6B002A4BD0B4F9B3
:101A98000C3018071CD5226922B313F0010107D0B6
:101AA800616900204942A060A1613AB1002038BDB7
:101AB800980758BF6169A160002AF7D1190658BF75
:101AC8001046F4D543F04003A3814FF0FF3038BDF2
:101AD800D9062CD55A0712D4226943F00803A381EA
:101AE800002ADAD103F42071B1F5007FD5D0214660
:101AF800284600F0BFFBB4F90C302269CDE7216B12
:101B080051B104F14002914204D0284600F074F823
:101B1800B4F90C300022226322690021C4E90021B3
:101B280023F02403D9E7184600F086FAAFE7092224
:101B380043F040032A60A381C7E700BF08000020E4
:101B48002DE9F84306460820894600F051F9DFF8E8
:101B58009C800546304600F081F9D8F808305F6867
:101B680027F00307A7F11104A4EB09042C44B4FBE4
:101B7800F5F4013C05FB04F4A54208DC00213046DD
:101B880000F096FAD8F808303B44984205D0304621
:101B980000F066F90020BDE8F8836142304600F0A5
:101BA80087FA01300FD0124AD8F808303F1B47F0A7
:101BB80001075F60136830461B1B136000F050F983
:101BC8000120BDE8F8830021304600F071FAD8F80A
:101BD8000820831A0F2BDADD43F001035360054B0D
:101BE80003491B68C01A0860D1E700BF4001002004
:101BF800AC0600204805002000297CD0F8B50C462A
:101C0800064600F02BF954F8043C764FA4F1080579
:101C180023F001016818D7F808C04268844522F00B
:101C2800030200F08380DB07426000EB020C33D430
:101C380054F8084CDCF804302D1B2144AC6807F13B
:101C4800080C644503F0010364D0D5F80CE0C4F82F
:101C58000CE0CEF80840002B00F0818041F0010331
:101C68006B600160B1F5007F22D27868CB08012251
:101C7800490901338A40024357F833107A6007EB69
:101C8800C302083AC5E9021247F83350CD6030461E
:101C9800BDE8F84000F0E4B8DCF80430DB072BD5E9
:101CA80041F00103B1F5007F44F8043C0160DCD346
:101CB800B1F5206F4FEA512353D28B0903F1390054
:101CC80003F13802C300F818FB580838984203D1CA
:101CD80061E09B68984204D05A6822F003028A4265
:101CE800F7D8D868C5E902308560DD603046BDE8C0
:101CF800F84000F0B5B87047114407F1080C836844
:101D080063453FD0C268DA60936041F001036B60BD
:101D18006950A7E7002B5FD10A44D0E90213CB60D2
:101D2800996042F001036B60AA50B0E70A44D907F2
:101D380007D454F8083CED1A1A44D5E90213CB60CD
:101D4800996042F001036B60274BBD601B689342AA
:101D58009DD8264B30461968FFF7F2FE97E71144E5
:101D6800CDE7142B08D9542B1DD80B0B03F16F00AA
:101D780003F16E02C300A6E703F15C0003F15B0206
:101D8800C300A0E741F00103C7E90455C5E902CC47
:101D98006B6069507BE779689210012404FA02F2BB
:101DA8000A437A609EE7B3F5AA7F06D8CB0B03F106
:101DB800780003F17702C30085E740F2545293425A
:101DC80006D88B0C03F17D0003F17C02C3007AE78F
:101DD8004FF47E737E2276E741F001036B60016069
:101DE80055E700BF400100204C050020A806002050
:101DF800082802D14FF48050704708B500F0FAFB6C
:101E0800162303604FF0FF3008BD00BF70B50F4BBD
:101E18000F4DAB42A3EB050607D0B610002455F8CA
:101E2800043B01349847A642F9D801F0A9FC094DB2
:101E3800094B5E1BAB424FEAA60606D0002455F8B4
:101E4800043B01349847A642F9D870BD9437000086
:101E580094370000943700009C370000704700BF9B
:101E6800704700BF00207047024A0349034800F04A
:101E7800DFB900BF30010020652B000010000020F2
:101E88000C4B4168994210B5044601D000F066FE3B
:101E9800A168094B994202D0204600F05FFEE16834
:101EA800064B994204D02046BDE8104000F056BECB
:101EB80010BD00BF6C050020D40500203C060020A2
:101EC800002070472DE9F8432A4C2B49DFF8AC90E5
:101ED800DFF8AC802B4FC4F8381100250423082202
:101EE800294604F15C00284EE360C4E90055C4E9C2
:101EF8000455A5606566A561FEF7AAFF234B6367D5
:101F08000822294604F1C400C4E90749C4E909873D
:101F1800C4E91A55C4E91E552567C4F8CC50C4F85D
:101F28008050E662FEF794FF194BC4F8DC3029466E
:101F380004F16803082204F59670C4F88430C4E9F3
:101F48002298C4E92476C4E93455C4E93855C4F85C
:101F5800D850C4F83451C4F8E850FEF779FF04F1BA
:101F6800D003C4E93C98C4E93E76C4F8EC30BDE837
:101F7800F88300BF6C050020711E0000B92C00001A
:101F8800E12C0000212D0000452D00000900010072
:101F980012000200F8B5254BD3F838310646002B5D
:101FA8003CD0234FD7E90134013B04D51DE05A1C2E
:101FB80004F1680419D0B4F90C50013B002DF6D196
:101FC8001C4BE360C4E90155C4E904556566256006
:101FD800A5610822294604F15C00FEF739FFC4E92F
:101FE8000C55C4E911552046F8BD3D680DB12F4682
:101FF800D8E74FF4D671304600F002FB044680B1B2
:102008000423C0E900530C302946A0604FF4D07275
:102018002546FEF71DFF3C602F46C3E7FFF752FF3A
:10202800BFE70C2338603360DDE700BF6C05002094
:10203800300100200100FFFF436B03B17047044BE0
:10204800044AD3F838314263002BF7D13AE700BF8E
:102058006C050020891E0000704700BF704700BF54
:10206800024A0349002000F0E3B800BF3001002015
:102078006D1E0000024A0349002000F0D9B800BFD5
:1020880030010020C91E000008B50021044600F0F8
:10209800ADFD034B1B6803B19847204601F06EFB6A
:1020A800A4060020002301461A46184600F04ABE3E
:1020B80038B5074D0022044608462A6001F050FB57
:1020C800431C00D038BD2B68002BFBD0236038BDE3
:1020D800E006002038B5074D074C2C1BA41005D08E
:1020E800013C55F8043D9847002CF9D1BDE838402B
:1020F80001F050BBAC370000A8370000000000001A
:1021080000000000000000000000000000000000C7
:1021180000000000000000000000000000000000B7
:1021280000000000000000000000000000000000A7
:10213800000000000000000030B490F800F020F02B
:1021480007016FF0000C10F0070491F820F040F040
:1021580048804FF000046FF00700D1E9002391F8A0
:1021680040F000F1080082FA4CF2A4FA8CF283FAEB
:102178004CF3A2FA8CF34BBBD1E9022382FA4CF25E
:1021880000F10800A4FA8CF283FA4CF3A2FA8CF35B
:10219800E3B9D1E9042382FA4CF200F10800A4FA69
:1021A8008CF283FA4CF3A2FA8CF37BB9D1E90623BB
:1021B80001F1200182FA4CF200F10800A4FA8CF235
:1021C80083FA4CF3A2FA8CF3002BC6D0002A04BF82
:1021D80004301A4612BAB2FA82F200EBD20030BCCE
:1021E8007047D1E9002304F00305C4F100004FEA69
:1021F800C50514F0040F91F840F00CFA05F562EAF1
:1022080005021CBF63EA050362464FF00004AAE713
:10221800936810B514461BB918460023636010BDB7
:1022280000F000FE0023A3600023636010BD00BF20
:102238002DE9F8430746884616464FF00009D6E9C7
:102248000154013D10D4A389012B08D9B4F90E30EB
:1022580001332146384602D0C04749EA0009013D0A
:102268006B1C04F16804EED13668002EE7D14846AD
:10227800BDE8F8832DE9F041B1F90C300C46990717
:1022880096B008D504F143030122C4E9043223605F
:1022980016B0BDE8F081B4F90E100029064626DB19
:1022A8006A4600F097FD00281FDB019D05F4704584
:1022B800A5F50055B5FA85F54FF480686D094FF41A
:1022C80000674146304600F09BF9E8B1B4F90C309C
:1022D800C4F8148043F0800320602061A3813DBBD3
:1022E8003B43A38116B0BDE8F081B4F90C3013F07C
:1022F800800519D04FF040080025414630462F464A
:1023080000F07EF90028E1D1B4F90C309A05BFD469
:1023180023F0030304F1430243F002030121C4E95B
:102328000421A3812260B3E74FF480682F46C8E7F1
:10233800B4F90E10304600F063FD10B9B4F90C3052
:10234800CEE7A38923F0030343F001031BB2C7E7D9
:1023580070B50C46B1F90E10002996B015461E4608
:1023680014DB6A4600F036FD00280FDB019901F402
:102378007041A1F50051B1FA81F14FF48063490928
:102388004FF4006031602B6016B070BDA18911F068
:10239800800106D000214023084631602B6016B02A
:1023A80070BD4FF48063084631602B6016B070BD75
:1023B800000000000000000001F0FF01102A2BDBE4
:1023C80010F0070F08D010F8013B013A8B422DD0CE
:1023D80010F0070F42B3F6D1F0B441EA012141EA07
:1023E800014122F007047FF000070023F0E80256BD
:1023F800083C85EA010586EA010685FA47F5A3FA4D
:1024080087F586FA47F6A5FA87F68EB9EED1F0BCBD
:1024180001F0FF0102F0070232B110F8013B013A66
:1024280083EA010313B1F8D10020704701387047DF
:10243800002D06BF35460338073815F0010F07D1C0
:10244800013015F4807F02BF013015F4C03F013020
:10245800F0BC0138704700BFB1F90C20F8B5160779
:102468000C46074649D4496842F400630029A38111
:102478005FDDA56A002D3ED0002112F480523E682F
:102488003960E16961D101233846A847451C0246F5
:102498006BD0B4F90C30A56AE169580705D56368B3
:1024A800D21A236B0BB1E36BD21A00233846A84724
:1024B800411C4CD13968B4F90C301D293FD82F4A3A
:1024C800CA40D2073BD52269226023F40062A28168
:1024D800DD044FF00002626001D5002943D0216B72
:1024E8003E6041B104F14003994202D03846FFF7FB
:1024F80083FB002323630020F8BD0E69002EFAD069
:102508000D680E6092070CBF4B690023AD1B8B60F2
:102518000CE0D4F824C0E1692B4632463846E0473F
:10252800B0F1000CA5EB0C05664406DD002DF0DCCF
:10253800E1E7E16B00299CDCDDE7B4F90C3043F0FE
:102548004003A3814FF0FF30F8BD226DA5E7B4F931
:102558000C302269226023F40062A281DB044FF070
:1025680000026260BBD52065B9E73B68002B90D0BC
:102578001D2B01D0162BE0D13E60BCE701004020A6
:1025880010B5044682B008B1436B53B1B1F90C00E1
:1025980008B902B010BD204602B0BDE81040FFF7F0
:1025A8005BBF0191FFF748FD0199EFE7A0B138B58E
:1025B8000C4B1D6804460DB16B6B4BB1B4F90C00A4
:1025C80000B938BD21462846BDE83840FFF744BF6A
:1025D8002846FFF731FDF1E7034A04490448FFF7AD
:1025E80027BE00BF08000020300100208925000018
:1025F80010000020014B1868704700BF0800002039
:102608002DE9F04F01F10B05162D83B0064623D8AE
:10261800102900F2AF80FFF721FC102518230220B3
:10262800C14F3B44A3F108025C68944200F0258145
:102638006368E268A16823F00303CA602344304654
:1026480091605A6842F001025A60FFF709FC0834A9
:10265800204603B0BDE8F08F35F0070500F18A8009
:10266800A94200F28780FFF7F9FBB5F5FC7FC0F0BF
:102678006D816B0A00F08280042B00F22481AB0983
:1026880003F1390003F1380EC300A74F3B44A3F10F
:10269800080C5C68A44507D10DE0002AE16880F2C7
:1026A800E6808C4507D00C46636823F003035A1B69
:1026B8000F2AF2DD7046DFF874823C69444500F069
:1026C800C380636823F0030CACEB05030F2B00F306
:1026D8004181002BC7E9048880F22C81BCF5007F7A
:1026E800D7F804E080F0CF804FEADC0101314FEAEF
:1026F8005C1C012303FA0CF357F83120A2604EEA60
:10270800030E07EBC103083BE360C7F804E047F892
:102718003140D46083104FF0010C0CFA03FCF445EF
:1027280032D81CEA0E0F08D120F003004FEA4C0CF7
:102738001CEA0E0F00F10400F8D007EBC00AD646D9
:102748008146DEF80C300BE0596821F003014A1B82
:102758000F2A1C46DB6800F3C280002A80F2D6806C
:102768009E45F1D109F1010919F0030F0EF1080E88
:10277800E7D118E10C233360002469E74FF40073B4
:1027880040204FF03F0E80E7BC68636823F00309E0
:10279800A94503D3A9EB05030F2B58DCDFF890B14B
:1027A800DBF8002004EB09031032082002EB0508CF
:1027B8000093FFF71DFBD7F808140131024605D036
:1027C80008F1FF388044414201EA08084146304692
:1027D8000092FFF76DFCB0F1FF3F009A824600F0CF
:1027E800D48004EB0903834200F2CD80DBF80410A7
:1027F8004144CBF80410084602F1FF3C40F0F58054
:102808001AEA0C0F40F0F180D7F808A0C84448F045
:102818000100CAF80400DBF82C208A42DBF83020DB
:1028280038BFCBF82C108A4238BFCBF8301054464A
:1028380020F00308A845A8EB050301D30F2B06DCFD
:102848003046FFF70DFB97E7D7F804E062E7621917
:1028580043F0010345F0010565603046BA605360F6
:10286800FFF7FEFA0834204603B0BDE8F08FA268EF
:102878002344D16030468A60E3E6DC68A3427FF4F3
:10288800D7AE023017E7BCF5206F4FEA5C2273D34E
:10289800142A00F20A8102F15C03DB005B32F918AA
:1028A800FB580839994203D1E6E09B68994204D065
:1028B8005A6822F003026245F7D8D968C4E90231A0
:1028C8008C60DC6026E7142B62D9542B00F2F6806A
:1028D8002B0B03F16F0003F16E0EC300D5E6D4F89D
:1028E80008C03046661945F001056560CCF80C3023
:1028F800C3F808C042F00103C7E90466C6E90288C4
:1029080073606250FFF7ACFA0834A1E62144304600
:102918004A6842F001024A6054F8082FD3609A606E
:10292800FFF79EFA94E600BF40010020480100200E
:10293800A8060020A4443046DCF8043043F0010324
:10294800CCF80430FFF78CFA083481E6E80805F182
:10295800080365E6621943F0010145F00105656069
:102968003046C7E90422C2E90288516044F80C30B5
:10297800FFF776FA08346BE64FEA9C1202F1390346
:10298800DB0038328BE7BC4228D0BC6860684FE770
:1029980003F15C0003F15B0EC30076E65AF80839D0
:1029A800534540F0D88010F0030F00F1FF30F5D107
:1029B8007B6823EA0C037B604FEA4C0C9C453FF68E
:1029C800E3AEBCF1000F04D1DEE64FEA4C0C09F18E
:1029D80004091CEA030FF8D04846AEE6DBF8040009
:1029E8004044CBF8040002F1FF3CD7F80814013149
:1029F8006ED004EB0903AAEB03031844CBF80400D8
:102A08001AF00703009341D0C3F108018A44D04467
:102A18000A4408EA0C01521A02EA0C0130460191F4
:102A2800FFF746FB421C6FD00199A0EB0A0000EBB0
:102A38000108DBF80420C7F808A048F00100114499
:102A4800BC42CAF80400CBF804103FF4E4AEB9F174
:102A58000F0F40D96268A9F10C0020F0070002F0BE
:102A6800010202436260052322180F28C2E90133DC
:102A780052D8DAF80400CEE692104FF0010C0CFAA6
:102A880002F24EEA020EC7F804E017E70AEB080163
:102A980001EA0C01521A02EA0C0130460191FFF7D3
:102AA80007FB431CC0D10099C3E7542A17D84FEA43
:102AB8001C3202F16F03DB006E32F0E6B3F5AA7F39
:102AC80017D8EB0B03F1780003F1770EC300DCE5B0
:102AD800C7F808A494E70123CAF80430B0E6B2F5B1
:102AE800AA7F23D84FEADC3202F17803DB00773281
:102AF800D5E640F25452934223D8AB0C03F17D0043
:102B080003F17C0EC300C0E5009BA3F108029044CA
:102B1800A8EB0A0800218CE704F108013046FFF70A
:102B28006BF8DBF80410D7F808A0A2E740F254537A
:102B38009A420CD84FEA9C4202F17D03DB007C32BA
:102B4800ADE64FF47E737F204FF07E0E9DE54FF487
:102B58007E737E22A3E67B682EE700BF70B539B18D
:102B680006460C4608B1436B83B3B4F90C3013B96D
:102B78000025284670BD21463046FFF76DFCE36A04
:102B8800054633B1E169304698470028B8BF4FF091
:102B9800FF35A3891B061CD4216B41B104F1400306
:102BA800994202D03046FFF727F800232363616C6F
:102BB80021B13046FFF720F800236364FFF74CFA91
:102BC8000023A381FFF74AFA284670BDFFF734FABD
:102BD800CBE721693046FFF70FF8DDE7024B0146E6
:102BE8001868FFF7BBBF00BF080000202DE9F04FB1
:102BF800294F83B03E6801905EB38B464FF00009C1
:102C08004FF001087468651E23D4013406EB840470
:102C1800BBF1000F20D173682268013BAB420CBFA7
:102C28007560C4F800907AB1D6F88811D6F804A077
:102C380008FA05FC1CEA010F1AD1904771683A6836
:102C4800514522D1B24220D1013D6B1CA4F10404AC
:102C5800DED103B0BDE8F08FD4F800315B45DAD09F
:102C6800013D6A1CA4F10404F6D103B0BDE8F08F5D
:102C7800D6F88C31D4F880101CEA030F09D10198DA
:102C8800904771683A685145DCD0002AE1D0164671
:102C9800B8E708469047D1E7DC060020024B13B19D
:102CA8000248FFF7FFB9704700000000DD20000070
:102CB80010B50C46B1F90E1000F0C2FA002803DB7B
:102CC800236D0344236510BDA38923F48053A38196
:102CD80010BD00BF002070472DE9F0410C46B1F946
:102CE8000C101F46CB05054616460BD421F480511F
:102CF800A1813B46B4F90E1032462846BDE8F041A2
:102D080000F052B8B4F90E100223002200F0AEFA17
:102D1800B4F90C10EAE700BF10B50C46B1F90E1073
:102D280000F0A4FAB4F90C30421C0EBF23F480530F
:102D380043F480532065A38110BD00BFB1F90E1084
:102D480000F0ECB970B4164D2C681CB365681F2DE3
:102D580023DC38B9AB1C0135656044F8231000202A
:102D680070BC704704EB850C0228CCF88820D4F896
:102D780088614FF0010202FA05F246EA0206C4F839
:102D88008861CCF80831E5D1D4F88C311343C4F804
:102D98008C31DFE7034C2C60D8E74FF0FF30DFE7DA
:102DA800DC060020E406002038B50C46084D8446B1
:102DB800114620461A4600232B606446FDF7DCFACC
:102DC800431C00D038BD2B68002BFBD0236038BDD6
:102DD800E006002070B50C46084D03460026204644
:102DE80011461C462E6000F09BFC431C00D070BDB1
:102DF8002B68002BFBD0236070BD00BFE0060020CD
:102E080038B5074D0022044608462A6000F090FCB9
:102E1800431C00D038BD2B68002BFBD0236038BD85
:102E2800E00600209368002B00F0F6802DE9F04FB3
:102E3800B1F90CC01CF0080F83B0904681460C46CF
:102E480031D00B697BB31CF00207D8F8006038D08A
:102E58000027D4F824B0E169DFF8BCA23D46554507
:102E68002B463A4628BF53464846C5B1D84700289E
:102E780040F3C880D8F808301B1A07442D1AC8F840
:102E88000830002B00F0B48055452B46D4F824B008
:102E9800E16928BF53463A464846002DE6D1D6E9AF
:102EA80000750836DBE721464846FEF7E7FD0028AF
:102EB80040F0AD80B4F90CC0D8F800601CF00207EF
:102EC800C6D11CF0010A63D12368A1685746184689
:102ED8008B46002F58D01CF4007F00F0B180B94217
:102EE8000A4600F2DD801CF4906F2FD021696269D8
:102EF8005D1A02EB420202EBD2726B1C52103B4489
:102F0800934292BF93469B461A461CF4806F00F08A
:102F1800E68011464846FFF773FB002800F0F5806D
:102F28002A462169019000F0B7F9A289019B22F491
:102F3800906242F08002A2815819ABEB0505C4F8F3
:102F480014B02361A5602060BB463A465146019201
:102F580000F0F6F8A1682368019AA1EB0B011A4466
:102F68003D46A16022600027D8F808305B1BAA44C0
:102F7800C8F80830002B3BD02368A168B4F90CC00E
:102F880018468B46002FA6D1D6E900A708369EE73B
:102F98003846BB463D46002D40D0002845D03A462D
:102FA800D4E904C32068A168AA4228BF2A4660451C
:102FB80004D901EB030A524500F38280934272DC84
:102FC800E169D4F824C05A464846E047B0F1000AFF
:102FD80018DDB7EB0A070FD00120D8F80830A3EBAB
:102FE8000A03D344A5EB0A05C8F80830002BD2D150
:102FF800002003B0BDE8F08F21464846FFF7C0FA2D
:103008000028EAD0B4F90C3043F04003A3814FF014
:10301800FF3003B0BDE8F08F002070477568334675
:103028000836002DFAD0D3F800B02A460A215846AF
:10303800FFF7C2F9002865D00130A0EB0B07AEE717
:1030480022699A4214D36269BA4211D86FF00043D8
:10305800BB4228BF3B46656A93FBF2F3E16902FB7A
:1030680003F348465246A847051ECBDD7F1B7BE786
:10307800B94228BF39460D4618460A46514600F05F
:103088005FF8A1682368491B2B44A16023600029CD
:10309800ECD121464846FFF773FA0028E6D0B1E79D
:1030A800BB463A4652E75946019200F049F8019A60
:1030B800A3689B1AA360236813442360924688E799
:1030C8005946524600F03CF8236853442360214691
:1030D8004846FFF755FA00283FF47BAF92E7484689
:1030E80000F074F9034600287FF426AF21694846AA
:1030F800FEF782FDB4F90C300C22C9F8002023F049
:10310800800381E76A1C17464AE70C22B4F90C30A1
:10311800C9F8002078E700BF00FCFF7F38B5074DED
:103128000022044608462A6000F0F2FA431C00D048
:1031380038BD2B68002BFBD0236038BDE00600208B
:1031480088420ED98B1883420BD900EB020C002A57
:103158006ED0624613F801CD02F801CD9942F9D13B
:1031680070470F2A0FD8034602F1FF3C002A5FD0B0
:103178000CF1010C013B8C4411F8012B03F8012FD1
:103188006145F9D1704740EA01039B0751D1A2F18B
:10319800100370B501F1200C23F00F0501F1100E9A
:1031A80000F11004AC441B095EF8105C44F8105C94
:1031B8005EF80C5C44F80C5C5EF8085C44F8085C4B
:1031C8005EF8045C44F8045C0EF1100EE64504F168
:1031D8001004E9D1013312F00C0F01EB031102F0D6
:1031E8000F0400EB031328D0043C24F003064FEA35
:1031F800940C1E441C1F8E465EF8045B44F8045F62
:10320800B442F9D10CF1010402F0030203EB840388
:1032180001EB840102F1FF3C4AB10CF1010C013BC6
:103228008C4411F8012B03F8012F6145F9D170BDC9
:10323800704702F1FF3C03469AE72246EAE700BFDF
:1032480038B50C46084D8446114620461A460023D8
:103258002B60644600F07CFA431C00D038BD2B6814
:10326800002BFBD0236038BDE006002038B50C46A3
:10327800084D8446114620461A4600232B606446B2
:1032880000F05EFA431C00D038BD2B68002BFBD041
:10329800236038BDE0060020844641EA000313F0AD
:1032A80003036DD1403A41D351F8043B40F8043B45
:1032B80051F8043B40F8043B51F8043B40F8043B08
:1032C80051F8043B40F8043B51F8043B40F8043BF8
:1032D80051F8043B40F8043B51F8043B40F8043BE8
:1032E80051F8043B40F8043B51F8043B40F8043BD8
:1032F80051F8043B40F8043B51F8043B40F8043BC8
:1033080051F8043B40F8043B51F8043B40F8043BB7
:1033180051F8043B40F8043B51F8043B40F8043BA7
:1033280051F8043B40F8043B403ABDD2303211D347
:1033380051F8043B40F8043B51F8043B40F8043B87
:1033480051F8043B40F8043B51F8043B40F8043B77
:10335800103AEDD20C3205D351F8043B40F8043B47
:10336800043AF9D2043208D0D2071CBF11F8013B45
:1033780000F8013B01D30B8803806046704700BF0B
:10338800082A13D38B078DD010F003038AD0C3F11A
:103398000403D21ADB071CBF11F8013B00F8013BFC
:1033A80080D331F8023B20F8023B7BE7043AD9D3BB
:1033B800013A11F8013B00F8013BF9D20B78037090
:1033C8004B7843708B788370604670472DE9F84FCF
:1033D8001646002900F096800C46804606F10B053B
:1033E800FEF73CFD54F8041C162DA4F1080921F041
:1033F800030758D81025AE4258D8AF4260DABE4B02
:103408009A6809EB070C6245DCF8040000F090802C
:1034180020F0010363445B68DB0768D420F00300F5
:103428003B189D4247DDCB0712D454F8083CA9EB62
:10343800030BDBF8043023F00302104400EB070A07
:10344800554540F3F68007EB020A554540F3CC801A
:1034580031464046FFF7D4F80646002800F02081A0
:1034680054F8043C23F001034B44A0F108029342B2
:1034780000F0B4803A1F242A00F2D780132A00F201
:10348800A280034622461168196051685960926803
:103498009A6021464046FEF7AFFB4046FEF7E0FC47
:1034A8003046BDE8F88F35F00705A4D50C23C8F8D9
:1034B8000030002618E01F46DCE90223D3609A603A
:1034C800D9F804307A1B0F2A03F0010309EB07002F
:1034D8001DD83B43C9F80430436843F001034360F7
:1034E8004046FEF7BDFC26463046BDE8F88FC907C2
:1034F800AED454F8083CA9EB030BDBF8043023F0F6
:103508000302A0E7BDE8F84F1146FFF779B809EBC9
:1035180005012B4342F00102C9F804304A604368B0
:1035280043F00103436008314046FEF765FBD7E7E7
:1035380020F00300C21905F1100C624580F2918059
:10354800CA0785D454F8082CA9EB020BDBF8042031
:1035580022F00302104400EB070AD4453FF773AF8B
:103568005E46DBF80C1056F8080F3A1F242AC16093
:10357800886000F2AE80132A40F2A9802168CBF857
:1035880008106168CBF80C101B2A00F2A8800834D8
:103598000BF110022168116061685160A1689160A7
:1035A8000BEB0501AAEB050242F0010299604A60A3
:1035B800DBF8043003F001032B434046CBF804301A
:1035C800FEF74EFC90E723680360636843601B2A9C
:1035D8003CD804F1080200F1080354E750F8043C11
:1035E80023F003031F446BE73A1F5E46DBF80C30F9
:1035F80056F8081F242ACB60996022D8132A1ED9AE
:103608002368CBF808306368CBF80C301B2A3BD80A
:1036180008340BF1100322681A6062685A60A268C5
:103628009A6034465746D9464AE72146FFF788FD4F
:103638002FE7DCE902133A1FCB609960D5E73346E0
:10364800E9E721463046FFF77BFDEAE7A368836098
:10365800E368C360242A27D004F1100200F11003A4
:1036680011E709EB05019960531B43F001034B6017
:1036780054F8043C03F001032B43404644F8043C4F
:10368800FEF7EEFB26462FE7A368CBF81030E36879
:10369800CBF81430242A10D010340BF11803BAE7F1
:1036A8004046FEF7DDFB04E7236903616169416178
:1036B80004F1180200F11803E5E62369CBF8183085
:1036C8006369CBF81C3018340BF12003A3E73246AA
:1036D80060E721463046FFF733FD074B60E7A168F6
:1036E800CBF81010E168CBF81410242A06D0103457
:1036F8000BF118024EE700BF400100202269CBF809
:1037080018206269CBF81C2018340BF1200241E71D
:10371800024B58221A604FF0FF307047E006002035
:10372800024B58221A604FF0FF307047E006002025
:10373800024B58221A600020704700BFE0060020A4
:10374800024B58221A604FF0FF307047E006002005
:10375800024B58221A604FF0FF307047E0060020F5
:10376800044A05491368002B08BF0B46184410602B
:10377800184670477408002078080020FEE700BF4C
:10378800F8B500BFF8BC08BC9E467047A52C0000E1
:10379800F1020000F8B500BFF8BC08BC9E467047AF
:1037A800C90200001000000000000000017A520069
:1037B800027C0E011B0C0D001C000000180000000C
:1037C80078E9FFFFD800000000410E088501840257
:1037D80002490A4AC5C4410B10000000000000005D
:1037E800017A5200027C0E011B0C0D00380000000B
:1037F80018000000C4EBFFFF9E00000000510E10EF
:1038080084048503860287015BC7C6C5C40E004CC5
:103818000A420B0A420B0E108404850386028701B4
:1038280051C7C6C5C40E000010000000000000000B
:10383800017A5200027C0E011B0C0D0014000000DE
:103848001800000054FAFFFF340100000002710A5A
:08385800430B0000000000001A
:10386000A83800000000002054010000F83D0000CE
:103870005005002000000000F83D00005005002029
:1038800000000000F83D000050050020000000008E
:1038900050050020CA000000780800200000000049
:0838A000780800200000000080
:1038A8000090D0030000000010000020000000007D
:1038B800000000006C050020D40500203C06002014
:1038C80000000000000000000000000000000000F0
:1038D80000000000000000000000000000000000E0
:1038E80000000000000000000000000000000000D0
:1038F80000000000000000000000000000000000C0
:1039080000000000000000000000000000000000AF
:10391800000000000000000000000000000000009F
:10392800000000000000000000000000000000008F
:10393800000000000000000000000000000000007F
:10394800000000000000000001000000000000006E
:103958000E33CDAB34126DE6ECDE05000B00000033
:10396800000000000000000000000000000000004F
:10397800000000000000000000000000000000003F
:10398800000000000000000000000000000000002F
:10399800000000000000000000000000000000001F
:1039A800000000000000000000000000000000000F
:1039B80000000000000000000000000000000000FF
:1039C80000000000000000000000000000000000EF
:1039D80000000000030000006C050020000000004B
:1039E800000000000000000040010020400100200D
:1039F800480100204801002050010020500100200B
:103A080058010020580100206001002060010020BA
:103A1800680100206801002070010020700100206A
:103A2800780100207801002080010020800100201A
:103A380088010020880100209001002090010020CA
:103A48009801002098010020A0010020A00100207A
:103A5800A8010020A8010020B0010020B00100202A
:103A6800B8010020B8010020C0010020C0010020DA
:103A7800C8010020C8010020D0010020D00100208A
:103A8800D8010020D8010020E0010020E00100203A
:103A9800E8010020E8010020F0010020F0010020EA
:103AA800F8010020F8010020000200200002002098
:103AB8000802002008020020100200201002002046
:103AC80018020020180200202002002020020020F6
:103AD80028020020280200203002002030020020A6
:103AE8003802002038020020400200204002002056
:103AF8004802002048020020500200205002002006
:103B080058020020580200206002002060020020B5
:103B18006802002068020020700200207002002065
:103B28007802002078020020800200208002002015
:103B380088020020880200209002002090020020C5
:103B48009802002098020020A0020020A002002075
:103B5800A8020020A8020020B0020020B002002025
:103B6800B8020020B8020020C0020020C0020020D5
:103B7800C8020020C8020020D0020020D002002085
:103B8800D8020020D8020020E0020020E002002035
:103B9800E8020020E8020020F0020020F0020020E5
:103BA800F8020020F8020020000300200003002093
:103BB8000803002008030020100300201003002041
:103BC80018030020180300202003002020030020F1
:103BD80028030020280300203003002030030020A1
:103BE8003803002038030020400300204003002051
:103BF8004803002048030020500300205003002001
:103C080058030020580300206003002060030020B0
:103C18006803002068030020700300207003002060
:103C28007803002078030020800300208003002010
:103C380088030020880300209003002090030020C0
:103C48009803002098030020A0030020A003002070
:103C5800A8030020A8030020B0030020B003002020
:103C6800B8030020B8030020C0030020C0030020D0
:103C7800C8030020C8030020D0030020D003002080
:103C8800D8030020D8030020E0030020E003002030
:103C9800E8030020E8030020F0030020F0030020E0
:103CA800F8030020F803002000040020000400208E
:103CB800080400200804002010040020100400203C
:103CC80018040020180400202004002020040020EC
:103CD800280400202804002030040020300400209C
:103CE800380400203804002040040020400400204C
:103CF80048040020480400205004002050040020FC
:103D080058040020580400206004002060040020AB
:103D1800680400206804002070040020700400205B
:103D2800780400207804002080040020800400200B
:103D380088040020880400209004002090040020BB
:103D48009804002098040020A0040020A00400206B
:103D5800A8040020A8040020B0040020B00400201B
:103D6800B8040020B8040020C0040020C0040020CB
:103D7800C8040020C8040020D0040020D00400207B
:103D8800D8040020D8040020E0040020E00400202B
:103D9800E8040020E8040020F0040020F0040020DB
:103DA800F8040020F8040020000500200005002089
:103DB8000805002008050020100500201005002037
:103DC80018050020180500202005002020050020E7
:103DD8002805002028050020300500203005002097
:103DE8003805002038050020FFFFFFFF0000020013
:0400000300000DD517
:00000001FF
